:020000040801F1
:1000000000000220F5D20108C12B01089D2B010838
:10001000E52B0108092C01082D2C01080000000027
:100020000000000000000000000000009DDA010850
:1000300055D301080000000089DC0108E5DC010857
:1000400055D3010855D3010855D3010855D30108EC
:1000500055D3010855D30108D1680108DF680108AC
:10006000ED680108FB680108096901089D0F020895
:10007000E50F02082D10020875100208BD100208D5
:10008000051102084D1102082565010855D3010824
:10009000B565010855D3010855D301081769010852
:1000A00055D3010855D3010855D3010855D301088C
:1000B00055D30108C5170208D9170208517D010858
:1000C0005F7D0108357D0108437D010855D3010896
:1000D00055D30108359901080B990108FD980108CD
:1000E0003D69010855D3010855D3010855D30108CE
:1000F000B117020855D3010855D30108951102081C
:1001000055D3010855D301089D17020855D301089E
:1001100055D3010819990108ED17020875890108DE
:10012000DD110208251202086D120208B51202083C
:10013000FD12020855D3010855D3010855D3010813
:1001400055D3010855D3010855D3010855D30108EB
:10015000451302088D130208D513020827990108D8
:100160006D7D01087B7D010855D3010855D3010839
:1001700055D3010855D3010855D3010855D30108BB
:1001800055D3010855D30108EFBEADDE10B5054CBF
:10019000237833B9044B13B10448AFF30080012333
:1001A000237010BDA40A002000000000503E030888
:1001B000084B10B51BB108490848AFF30080084848
:1001C000036803B910BD074B002BFBD0BDE81040FE
:1001D000184700BF00000000A80A0020503E030896
:1001E000A00A00200000000070B50F4E0F4D761BD6
:1001F000B61018BF002405D0013455F8043B9847C9
:10020000A642F9D10A4E0B4D761B1DF0BDFAB61071
:1002100018BF002406D0013455F8043B9847A64285
:10022000F9D170BD70BD00BF5C0A00205C0A0020DF
:100230009C0A00205C0A002070B4840746D0541E3B
:10024000002A41D0CDB2034602E0621EE4B3144658
:1002500003F8015B9A07F8D1032C2ED9CDB245EAF9
:1002600005250F2C45EA054519D903F1100226464C
:10027000103E0F2E42F8105C42F80C5C42F8085C0D
:1002800042F8045C02F11002F2D8A4F1100222F04C
:100290000F0204F00F041032032C13440DD91E4634
:1002A0002246043A032A46F8045BFAD8221F22F0B9
:1002B00003020432134404F003042CB1C9B21C44F9
:1002C00003F8011BA342FBD170BC704714460346E0
:1002D000C2E700BF024B13B1024800F005B87047F7
:1002E00000000000F5020108002301461A461846E6
:1002F00000F014B838B5074D074C2C1BA41005D0DE
:10030000013C55F8043D9847002CF9D1BDE8384030
:100310001DF040BAA00A00209C0A00202DE9F047F9
:10032000254C2568D5F848410646884692469946A8
:10033000C4B360681F2817DC431C76B104EB80054A
:100340000122C5F888A0D4F8881182401143022EFA
:10035000C4F88811C5F808911ED00230636044F8D3
:1003600020800020BDE8F087144B03B34FF4C87021
:100370001BF066FA0446D0B1D5F84831002780E872
:100380008800C5F8484138460123C4F88871C4F88C
:100390008C71002EE1D0D1E7D4F88C110A43C4F857
:1003A0008C21DAE705F5A674C5F84841C1E74FF09E
:1003B000FF30BDE8F08700BFA0D7020841B80208AF
:1003C00080B483B000AF786039603B6818460C3762
:1003D000BD465DF8047B704780B483B000AF7860A1
:1003E0007B6818460C37BD465DF8047B704700BF3C
:1003F00080B483B000AF78607B6818460C37BD4688
:100400005DF8047B704700BF80B483B000AF7860B4
:100410007B6800229A607B6818460C37BD465DF801
:10042000047B704780B582B000AF78607B689B68C2
:10043000002B05D07B689B68786879680322984711
:100440007B6818460837BD4680BD00BF80B582B0C6
:1004500000AF78607B681846FFF7E4FF7B681846BA
:100460000837BD4680BD00BF80B485B000AFF860DE
:10047000B9607A603B607B6818461437BD465DF80A
:10048000047B704780B485B000AFF860B9607A60D3
:100490003B60002318461437BD465DF8047B704767
:1004A00080B582B000AF00F0C5FE1BF033FE0246FF
:1004B0003F4B1340002B03DA013B63F0070301338A
:1004C00001337B601BF026FE02463A4B83FB02138E
:1004D0005911D317CB1A40F2DC5101FB03F3D31AA5
:1004E00003F548733B607B68013B072BDBD801A217
:1004F00052F823F015050108270501083B050108FE
:100500004F05010861050108750501088705010807
:100510009B050108284BC821184609F003FC3B68DD
:1005200018460AF06FFD244B6FF0C701184609F01A
:10053000F9FB3B6818460AF065FD1F4B4FF4C87184
:10054000184609F0EFFB3B6818460AF05BFD1A4BB2
:100550001A49184609F0E6FB3B6818460AF052FDB6
:10056000154B4FF41671184609F0DCFB3B68184632
:100570000AF048FD104B1249184609F0D3FB3B68BE
:1005800018460AF03FFD0C4B4FF44871184609F02D
:10059000C9FB3B6818460AF035FD074B0949184668
:1005A00009F0C0FB3B6818460AF02CFD7BE700BF52
:1005B00007000080F1197605480D002070FEFFFF4E
:1005C000A8FDFFFFE0FCFFFF80B500AF084B184619
:1005D00009F0BAFB0246074B1A60064B1B681A4625
:1005E0000549064801F04BFD64200AF00BFDEDE7DC
:1005F0003C0D0020C00A0020A4D702081C0F0020D8
:1006000080B588B000AF174800F092FE07F10803EC
:100610001549184603F06CFE07F108023B461146E7
:10062000184600F0B8FC3B46184600F043FD034670
:10063000FB77FB7F83F00103DBB2002B06D00B4B73
:10064000184609F081FB0246094B1A603B461846E2
:1006500000F0B3FCD7E73B46184600F0AEFC12F0C2
:1006600057FA00BF1C0F0020A40C00203C0D0020F6
:10067000C40A002080B500AF084B184609F064FB9F
:100680000246074B1A60064B1B681A460549064886
:1006900001F0F5FC64200AF0B5FCEDE7400D002008
:1006A000C80A0020C0D702081C0F002080B588B0FF
:1006B00000AF174800F03CFE07F108031549184643
:1006C00003F016FE07F108023B461146184600F0FB
:1006D00062FC3B46184600F0EDFC0346FB77FB7FCF
:1006E00083F00103DBB2002B06D00B4B184609F058
:1006F0002BFB0246094B1A603B46184600F05DFC96
:10070000D7E73B46184600F058FC12F001FA00BF4C
:100710001C0F0020F00C0020400D0020CC0A00200F
:1007200080B582B000AF304805F05EF90346FB713A
:100730002E4805F059F90346BB710A200AF062FC05
:100740002B4B1A682B4B1B689A4204DA2A4B002168
:10075000184609F0E7FA274B1B6803F6B832244B1A
:100760001B689A4204DA244B0021184609F0DAFA91
:10077000FB79002B07D0BB79002B04D01E4B002146
:10078000184609F0CFFAFB7983F00103DBB2002BA6
:100790000AD0BB7983F00103DBB2002B04D0164BE7
:1007A0000021184609F0BEFA124B1B6803F6B83256
:1007B0000F4B1B689A4207DBFB79002B04D00E4BD2
:1007C000C821184609F0AEFA094B1A68094B1B6894
:1007D0009A42A8DBBB79002BA5D0074B6FF0C7016D
:1007E000184609F09FFA9EE75C0D00208C0D002052
:1007F000C00A0020C40A00203C0D002080B582B051
:1008000000AF304805F0F0F80346FB712E4805F0C4
:10081000EBF80346BB710A200AF0F4FB2B4B1A6875
:100820002B4B1B689A4204DA2A4B0021184609F028
:1008300079FA274B1B6803F6B832244B1B689A429F
:1008400004DA244B0021184609F06CFAFB79002BDE
:1008500007D0BB79002B04D01E4B0021184609F0AD
:1008600061FAFB7983F00103DBB2002B0AD0BB797C
:1008700083F00103DBB2002B04D0164B0021184695
:1008800009F050FA114B1A68114B1B689A4207DCA9
:10089000FB79002B04D00F4BC821184609F042FA0F
:1008A0000B4B1B6803F6B832084B1B689A42A8DC56
:1008B000BB79002BA5D0074B6FF0C701184609F094
:1008C00031FA9EE75C0D00208C0D0020C80A002044
:1008D000CC0A0020400D002080B59CB000AF604BDA
:1008E0000121184609F048FA5E4B0121184609F02B
:1008F00043FA3B465C49184600F0DCF838460023D2
:100900004FF4C87202210AF07BFA3B461846FFF703
:100910009DFD07F110035549184600F00BF907F14A
:10092000100000234FF4C87202210AF069FA07F19F
:1009300010031846FFF78AFD07F120034C491846BB
:1009400000F0F8F807F1200000234FF4C8720221EC
:100950000AF056FA07F120031846FFF777FD07F172
:1009600030034449184600F0E5F807F13000002351
:100970004FF4C87202210AF043FA07F13003184617
:10098000FFF764FD07F140033B49184600F0D2F839
:1009900007F1400000234FF4C87202210AF030FA38
:1009A00007F140031846FFF751FD07F150033349A3
:1009B000184600F07FF807F1500000234FF4C8728A
:1009C00002210AF01DFA07F150031846FFF73EFD19
:1009D00007F160032A49184600F06CF807F160003F
:1009E00000234FF4C87202210AF00AFA07F16003EB
:1009F0001846FFF72BFD2FE03B461846FFF726FD74
:100A000012F086F807F110031846FFF71FFD12F0E9
:100A10007FF807F120031846FFF718FD12F078F869
:100A200007F130031846FFF711FD12F071F807F1D6
:100A300040031846FFF70AFD12F06AF807F1500369
:100A40001846FFF703FD12F063F807F1600318463C
:100A5000FFF7FCFC12F05CF87037BD4680BD00BFAC
:100A60003C0D0020400D0020A1040108C90501082B
:100A70000106010875060108AD06010821070108F5
:100A8000FD07010880B483B000AF78607B6818462A
:100A90000C37BD465DF8047B704700BF80B483B05F
:100AA00000AF78607B6818460C37BD465DF8047B64
:100AB000704700BF90B583B000AF78603960786848
:100AC000FFF7E0FF7B681846FFF79EFC3B6818467F
:100AD00000F064F80346002B0FD07C683B461846B4
:100AE000FFF7DCFF03461946204600F067F87B68F5
:100AF000084ADA607B68084A9A607B6805E07B6890
:100B00001846FFF78FFC12F003F818460C37BD4665
:100B100090BD00BFE10B0108FD0B010880B483B05C
:100B200000AF78607B6818460C37BD465DF8047BE3
:100B3000704700BF90B583B000AF786039607868C7
:100B4000FFF7A0FF7B681846FFF75EFC3B6818467E
:100B500000F08EF80346002B0FD07C683B46184609
:100B6000FFF7DCFF03461946204600F091F87B684A
:100B7000084ADA607B68084A9A607B6805E07B680F
:100B80001846FFF74FFC11F0C3FF18460C37BD465F
:100B900090BD00BFB50C0108D10C010880B483B032
:100BA00000AF78607B68002B14BF01230023DBB209
:100BB00018460C37BD465DF8047B704790B585B08C
:100BC00000AF786039603868FFF768FF0346224657
:100BD0001946786800F0B6F800BF1437BD4690BDDE
:100BE00080B582B000AF7860786800F0C7F803463F
:100BF0001B68984700BF0837BD4680BDB0B586B0BA
:100C000000AFF860B9601346FB71FB79032B27D85E
:100C100001A252F823F000BF290C0108370C01088B
:100C20004B0C0108570C0108F86800F0B9F80246AF
:100C30000E4B136014E0F86800F0BEF80446B86884
:100C400000F09CF8034623600AE02A46B968F86879
:100C500000F0BEF804E02146F86800F0D5F800BFC7
:100C6000002318461837BD46B0BD00BF08D802089B
:100C700080B483B000AF78607B68002B14BF012381
:100C80000023DBB218460C37BD465DF8047B704785
:100C900090B585B000AF786039603868FFF73EFFE7
:100CA000034622461946786800F0BAF800BF1437A8
:100CB000BD4690BD80B582B000AF7860786800F026
:100CC000CBF803461B68984700BF0837BD4680BD78
:100CD000B0B586B000AFF860B9601346FB71FB7920
:100CE000032B27D801A252F823F000BFFD0C010806
:100CF0000B0D01081F0D01082B0D0108F86800F00D
:100D00004FF802460E4B136014E0F86800F0B6F896
:100D10000446B86800F0A0F8034623600AE02A46BB
:100D2000B968F86800F0B6F804E02146F86800F009
:100D3000CDF800BF002318461837BD46B0BD00BF30
:100D4000F0D7020890B585B000AFF860B9603A718D
:100D5000B868FFF7A3FE03461C68F868FFF73CFB82
:100D6000034619460420FFF72BFB0346002B00D057
:100D70001C6000BF1437BD4690BD00BF80B584B075
:100D800000AF7860786800F0ADF80346184600F0D0
:100D9000B5F8F860FB6818461037BD4680BD00BF47
:100DA00080B582B000AF78607868FFF715FB034626
:100DB00018460837BD4680BD80B582B000AF786068
:100DC0007868FFF709FB034618460837BD4680BD23
:100DD00090B585B000AFF860B9603A71B86800F0BE
:100DE00081F803461C68F868FFF7F6FA03461946CF
:100DF0000420FFF7E5FA0346002B00D01C6000BF7B
:100E00001437BD4690BD00BF80B582B000AF78609A
:100E10003970786800F07EF800BF0837BD4680BDA5
:100E200090B585B000AFF860B9603A71B868FFF767
:100E300075FE03461C68F868FFF7CEFA03461946AC
:100E40000420FFF7BDFA0346002B00D01C6000BF52
:100E50001437BD4690BD00BF80B584B000AF786048
:100E6000786800F063F80346184600F06BF8F86005
:100E7000FB6818461037BD4680BD00BF80B582B004
:100E800000AF78607868FFF7A7FA0346184608377E
:100E9000BD4680BD90B585B000AFF860B9603A71CD
:100EA000B86800F043F803461C68F868FFF794FA46
:100EB000034619460420FFF783FA0346002B00D0AF
:100EC0001C6000BF1437BD4690BD00BF80B582B026
:100ED00000AF78603970786800F040F800BF0837DC
:100EE000BD4680BD80B582B000AF78607868FFF7FE
:100EF0007FFA034618460837BD4680BD80B483B0EC
:100F000000AF78607B6818460C37BD465DF8047BFF
:100F1000704700BF80B582B000AF78607868FFF797
:100F20005BFA034618460837BD4680BD80B582B0DF
:100F300000AF78607868FFF75BFA03461846083719
:100F4000BD4680BD80B483B000AF78607B68184632
:100F50000C37BD465DF8047B704700BF80B582B09A
:100F600000AF78607868FFF737FA0346184608370D
:100F7000BD4680BD80B582B000AF786039607B68C7
:100F80001B6830331B683A6802217868984700BFB5
:100F90000837BD4680BD80B483B000AF786039604B
:100FA0007B683A681A607B6800221A717B68184671
:100FB0000C37BD465DF8047B704780B582B000AF4A
:100FC0007860786800F03EF87B6818460837BD46C0
:100FD00080BD80B582B000AF78607B681B79002B44
:100FE0002CD17B681B681B680C331B687A681268FD
:100FF0001046984703461A68603A12681A44126805
:10100000303212681968603909680B4418469047F5
:101010007B681B681B680C331B687A681268104673
:10102000984703461A685C3A126813440021184630
:10103000FFF7A0FF7B6801221A7100E000BF0837AC
:10104000BD4680BD80B483B000AF78607B681B79FB
:1010500083F00103DBB2002B03D17B6800221A71FD
:1010600000E000BF0C37BD465DF8047B704780B5DB
:1010700082B000AF78607868FFF7ABFF7B681B68D1
:101080001B680C331B687A68126810469847034641
:101090001A68383A12681A4412681C3212681968C1
:1010A000383909680B4418469047034618460837F4
:1010B000BD4680BD80B582B000AF78607868FFF72C
:1010C000D6FF0346002B0CBF01230023DBB21846DA
:1010D0000837BD4680BD80B483B000AF78607B68C0
:1010E00018460C37BD465DF8047B704780B582B06A
:1010F00000AF7860394802F03BF8394802F038F820
:10110000384802F035F8354802F04FF8344802F01C
:101110004CF8344802F049F807F054FC324802F029
:101120006CF8324803F08AFB314803F0A9FE3148DD
:1011300003F084FB2F4803F033FC00F0E1F82E4865
:1011400003F07CFB2C4803F02BFC00212A4803F021
:10115000C7FC09F03FF8294B184608F0D5FD284B8D
:10116000184608F0D1FD274B184608F0CDFD264B58
:10117000184608F0C9FD09F039F8244802F094FD3A
:10118000234802F091FD234802F08EFD224802F030
:101190008BFD224802F088FD214802F085FD02F017
:1011A00065F8204802F0AAF804F0EAFE1E4804F0B0
:1011B000B9FB1E4804F0B6FB1D4804F03DFCC320FB
:1011C00009F020FF01210C4803F08AFC052009F0FA
:1011D00019FF00BF0837BD4680BD00BF040F0020C7
:1011E0000C0F0020140F0020F00A0020D80A002065
:1011F000D40A0020E00A0020E80A00203C0D00206C
:10120000400D0020440D0020480D0020040B00205C
:101210006C0B0020D40B00203C0C0020A40C002000
:10122000F00C0020DC0D00205C0D00208C0D002057
:10123000BC0D002080B500AF07F0B0FB0346184698
:1012400080BD80B582B000AF786078681AF0F8FA97
:10125000034618460837BD4680BD80B582B000AF52
:10126000786078681AF0F4FA0837BD4680BD00004F
:1012700080B582B000AF78600CF0ACFC084B1B6806
:10128000002B01D10DF07EFD054B1B680133044A94
:1012900013600CF0C9FC00BF0837BD4680BD00BF1D
:1012A000F40A002080B582B000AF7860074B1B685D
:1012B000013B064A1360054B1B68002B01D10DF062
:1012C0006FFD00BF0837BD4680BD00BFF40A002097
:1012D00080B582B000AF786078681AF0B1FA034642
:1012E00018460837BD4680BD80B582B000AF786033
:1012F00078681AF0ADFA00BF0837BD4680BD00001F
:1013000080B500AF0121024803F0EAFB00BF80BDB9
:10131000E00A002080B400AF034B044A1A6000BF0B
:10132000BD465DF8047B70473C0400201C0F002084
:1013300080B483B000AF78607B68002B03D0064A8E
:101340007B68136002E0044B044A1A6000BF0C374C
:10135000BD465DF8047B704738040020340400204B
:1013600080B582B000AF78603960074B1B681B689E
:1013700008331B68044A10683A687968984703463E
:1013800018460837BD4680BD380400200FB480B52C
:1013900082B000AF07F114037B607968386900F010
:1013A00009F8034618460837BD46BDE8804004B03A
:1013B0007047000080B582B000AF78603960074B9D
:1013C0001B681B6808331B68044A10683A68796810
:1013D0009847034618460837BD4680BD3C040020A8
:1013E0000FB480B582B000AF07F114037B60796859
:1013F000386900F017F8034618460837BD46BDE8BF
:10140000804004B0704780B582B000AF03463960B9
:10141000FB71FB79184607F0E1FD00BF0837BD46B8
:1014200080BD000090B593B000AF7860396007F1DF
:1014300008033A687968184600F020FB104B7B647B
:1014400007F1440207F108031146184600F09FF81F
:1014500007F10803184600F044FB044607F10803AF
:10146000184600F02CFB234606E007F10803184657
:1014700000F025FB11F04CFB18464C37BD4690BDE3
:101480000714010880B584B000AF78600023FB60CA
:10149000FB687A6813441B78002B0AD0FB687A68D3
:1014A00013441B78184607F099FDFB680133FB6075
:1014B000EEE700BF1037BD4680BD000080B400AF2E
:1014C000044B4AF6AA221A6000BFBD465DF8047BB1
:1014D000704700BF0030004080B582B000AF0CF014
:1014E000C5FB00237B60462004F0BFFE7B6803F051
:1014F0000103002B14BF01230023DBB219460F4860
:1015000001F060FE7B6803F00103002B0CBF012398
:101510000023DBB219460A4801F054FE7B6803F051
:101520000203002B14BF01230023DBB21946054838
:1015300001F048FE7B6801337B60D4E7040F002094
:101540000C0F0020140F002080B483B000AF78602F
:101550007B6818460C37BD465DF8047B704780B445
:1015600083B000AF78607B6818460C37BD465DF8E5
:10157000047B704780B582B000AF78607B68184606
:10158000FEF750FF7B6818460837BD4680BD80B522
:1015900086B000AF786039603868FFF7E0FF034637
:1015A0001A6807F108031146184600F033F807F1EE
:1015B00008037968184600F061F807F10803184637
:1015C000FFF7D8FF7B6818461837BD4680BD80B44A
:1015D00083B000AF78607B6818460C37BD465DF875
:1015E000047B704780B582B000AF78607868FFF701
:1015F000EEFF7B6818460837BD4680BD80B483B0D7
:1016000000AF78607B6818460C37BD465DF8047BF8
:101610007047000090B583B000AF7860396078689B
:10162000FFF7E0FF7B681846FEF7EEFE3B681846C2
:1016300000F0A1F80346002B0FD07C683B4618460B
:10164000FFF7DCFF03461946204600F0A4F87B684C
:10165000084ADA607B68084A9A607B6805E07B6824
:101660001846FEF7DFFE11F053FA18460C37BD4658
:1016700090BD00BFD11701080918010880B582B0DC
:1016800000AF786039607B683A681146184600F010
:1016900021F87B6803F108023B68083319461046BD
:1016A00000F04AF87B6803F10C023B680C331946E2
:1016B000104600F0EEF800BF0837BD4680BD80B48C
:1016C00083B000AF78607B6818460C37BD465DF884
:1016D000047B704780B584B000AF7860396078686B
:1016E000FFF7EDFF024607F1080392E8030083E8E5
:1016F00003003868FFF7E3FF02467B6892E80300C7
:1017000083E8030007F108031846FFF7D8FF0246F5
:101710003B6892E8030083E8030000BF1037BD4632
:1017200080BD80B483B000AF78607B6818460C370A
:10173000BD465DF8047B704780B584B000AF78602B
:1017400039607868FFF7EDFF03461B68FB60386877
:10175000FFF7E7FF03461A687B681A6007F10C037E
:101760001846FFF7DEFF03461A683B681A6000BFA1
:101770001037BD4680BD80B483B000AF78607B6811
:10178000002B14BF01230023DBB218460C37BD46E3
:101790005DF8047B704790B585B000AF7860396024
:1017A0003868FFF72BFF034622461946786800F099
:1017B0008FF800BF1437BD4690BD80B483B000AF32
:1017C00078607B6818460C37BD465DF8047B70472F
:1017D000B0B584B000AFF860B9607A60F86800F026
:1017E00092F803461C68B868FFF7E7FF03461D78C8
:1017F0007868FFF7A9FE03461B6819462846A047EC
:1018000000BF1037BD46B0BDB0B586B000AFF860C0
:10181000B9601346FB71FB79032B27D801A252F85C
:1018200023F000BF351801084318010857180108B4
:1018300063180108F868FFF7B3FA02460E4B13600D
:1018400014E0F86800F070F80446B86800F05BF83F
:10185000034623600AE02A46B968F86800F070F889
:1018600004E02146F86800F086F800BF002318461F
:101870001837BD46B0BD00BF64D8020880B483B03D
:1018800000AF78607B6818460C37BD465DF8047B76
:10189000704780B584B000AF786039607868FFF732
:1018A000EDFF03461B68FB603868FFF7E7FF034660
:1018B0001A687B681A6007F10C031846FFF7DEFF11
:1018C00003461A683B681A6000BF1037BD4680BDEA
:1018D00090B585B000AFF860B9603A71B868FFF7AD
:1018E0008DFE03461C68F868FEF776FD0346194630
:1018F0000420FEF765FD0346002B00D01C6000BFEE
:101900001437BD4690BD80B584B000AF786078686C
:1019100000F03DF80346184600F045F8F860FB6813
:1019200018461037BD4680BD80B582B000AF7860E4
:101930007868FEF751FD034618460837BD4680BD5E
:1019400090B585B000AFF860B9603A71B86800F042
:101950001EF803461C68F868FEF73EFD034619466C
:101960000420FEF72DFD0346002B00D01C6000BFB5
:101970001437BD4690BD80B582B000AF7860397035
:10198000786800F01BF800BF0837BD4680BD80B501
:1019900082B000AF78607868FEF72AFD03461846EB
:1019A0000837BD4680BD80B483B000AF78607B68E7
:1019B00018460C37BD465DF8047B704780B582B091
:1019C00000AF78607868FEF707FD034618460837D1
:1019D000BD4680BD80B582B000AF786039607B685D
:1019E000012B16D13B684FF6FF72934211D10B4881
:1019F000FFF771FB61210A4803F00EFA372109480D
:101A000002F0B4FF5B21084802F0B0FF074801F084
:101A1000E9FB00BF0837BD4680BD00BFD00A0020EB
:101A2000D40A0020E00A0020E80A0020F00A002082
:101A300080B500AF4FF6FF710120FFF7CBFF80BDEF
:101A400080B483B000AF78607B689B68002B0CBFCC
:101A500001230023DBB218460C37BD465DF8047B3A
:101A6000704780B582B000AF78607B681846FEF79B
:101A7000D9FC7B6818460837BD4680BD80B584B068
:101A800000AFF860B9607A60FB68184600F0E9F8CA
:101A9000FB681033184600F0FFF8FB68BA681A625A
:101AA000FB6800229A62FB680022DA62FB6824333A
:101AB0007A681A60FB6818461037BD4680BD80B54D
:101AC00082B000AF78607B6810331846FFF7C9FF1B
:101AD0007B681846FFF74EFD7B6818460837BD4601
:101AE00080BD80B584B000AF78607B685B6ABB6006
:101AF0007B6800221A637B681B6ABA68194678689B
:101B000000F094FE0346FB60786800F005F8FB687F
:101B100018461037BD4680BD80B582B000AF7860F2
:101B20007B689B6A002B1AD07B681B6B002B16D03E
:101B30007B681033184600F0BFF80346002B0AD02C
:101B40007B6803F110007B68996A7B681A6B7B687D
:101B50009B6B00F0D7F87B6800221A6300E000BF9F
:101B60000837BD4680BD0EB480B585B000AF786043
:101B700007F12003FB60FB68FA694FF0FF317868DA
:101B800000F031F8034618461437BD46BDE88040E2
:101B900003B0704780B485B000AFF8600B467A6040
:101BA000FB72FB689B68B3F1FF3F07D0FB681B68C3
:101BB0001A68FB689B68013B9A420ED0FB685B6821
:101BC0001A68FB681B681B681344FA7A1A70FB6872
:101BD0001B681A6801321A6000E000BF1437BD4666
:101BE0005DF8047B704790B599B000AFF860B960BC
:101BF0007A603B6007F118033A6879681846FFF786
:101C00003DFF00237B6107F114037B6507F10C03A3
:101C1000BB65BB68FB6507F1540207F11803114669
:101C2000184600F0A6F807F118031846FFF759FF09
:101C3000FA687B69134400221A707B691C4607F11D
:101C400018031846FFF73BFF234606E007F1180389
:101C50001846FFF734FF10F05BFF18466437BD46A7
:101C600090BD80B582B000AF78607868FFF7BAFCAD
:101C70007B681846FEF7C8FB7B6818460837BD46E8
:101C800080BD80B483B000AF78607B6818460C37A5
:101C9000BD465DF8047B704780B582B000AF7860C8
:101CA0007868FFF7EEFF7B681846FEF7ADFB7B68B0
:101CB00018460837BD4680BD80B582B000AF786059
:101CC0007B681846FFF7BCFE034683F00103DBB2D6
:101CD00018460837BD4680BD80B483B000AF786039
:101CE0007B6818460C37BD465DF8047B704780B4AE
:101CF00083B000AF78607B6818460C37BD465DF84E
:101D0000047B70472DE9F04184B000AFF860B96002
:101D10007A603B60FB681846FFF792FE0346002B93
:101D200001D011F0ABF8FB68DC68FD6807F108032F
:101D30001846FFF7D1FF06463B1D1846FFF7D7FFB1
:101D400080463B461846FFF7FFFB034642463146B6
:101D50002846A0471037BD46BDE8F08180B483B067
:101D600000AF78607B6818460C37BD465DF8047B91
:101D7000704780B586B000AF786039603868FFF78B
:101D8000EDFF034607F108000ECB00F01BF807F14A
:101D9000080379681846FFF771FC07F10803184635
:101DA000FFF7E8FB7B6818461837BD4680BD80B456
:101DB00083B000AF78607B6818460C37BD465DF88D
:101DC000047B704790B585B000AFF860384680E876
:101DD0000E00F868FFF706FCFB681846FEF714FBD8
:101DE0003B46184600F024F80346002B0FD0FC6851
:101DF0003B461846FFF7DBFF03461946204600F036
:101E000022F8FB68084ADA60FB68084A9A60FB68B7
:101E100005E0FB681846FEF705FB10F079FE184652
:101E20001437BD4690BD00BF6B1E0108A51E0108FA
:101E300080B483B000AF7860012318460C37BD46EC
:101E40005DF8047B704790B585B000AF786039606D
:101E50003868FFF7ACFF034622461946786800F061
:101E60005BF800BF1437BD4690BDB0B584B000AF7D
:101E7000F860B9607A60F86800F06BF80546B868F9
:101E8000FFF79BFC03461C787868FFF75DFB034671
:101E90001B681A4621462846FFF77CFE00BF103714
:101EA000BD46B0BDB0B586B000AFF860B9601346AE
:101EB000FB71FB79032B27D801A252F823F000BF56
:101EC000D11E0108DF1E0108F31E0108FF1E0108D4
:101ED000F868FEF765FF02460E4B136014E0F868E1
:101EE00000F046F80446B86800F033F80346236073
:101EF0000AE02A46B968F86800F046F804E021468E
:101F0000F86800F05FF800BF002318461837BD4698
:101F1000B0BD00BFA4D80208B0B584B000AFF8606F
:101F2000B9603A71B868FFF742FF05460C2010F01F
:101F300055FC03461C4623462A4607CA83E8070089
:101F4000F86800F015F803461C6000BF1037BD4666
:101F5000B0BD80B584B000AF7860786800F043F819
:101F600003461B68FB60FB6818461037BD4680BD02
:101F700080B582B000AF78607868FEF72DFA03462E
:101F800018460837BD4680BDB0B584B000AFF860D4
:101F9000B9603A71B86800F026F803461D680C2055
:101FA00010F01CFC03461C4623462A4607CA83E859
:101FB0000700F868FFF7DCFF03461C6000BF10371E
:101FC000BD46B0BD80B582B000AF7860397078682A
:101FD000FFF7CEFF03461B6818460FF035FD00BF24
:101FE0000837BD4680BD80B582B000AF78607868A4
:101FF000FEF7FEF9034618460837BD4680BD80B59A
:1020000082B000AF78607B681B6808331B68786813
:102010009847034618460837BD4680BD80B582B054
:1020200000AF786039607B681B680C331B683968C7
:1020300078689847034618460837BD4680BD80B586
:1020400082B000AF786039607B683A681A604FF000
:10205000FF313868FFF7E2FF7B6818460837BD4656
:1020600080BD80B582B000AF78607B681B68184681
:10207000FFF7C5FF7B6818460837BD4680BD0EB424
:1020800080B585B000AF786007F12003FB607B6806
:102090001B6808331B68FA68F96978689847034633
:1020A00018461437BD46BDE8804003B0704780B580
:1020B00084B000AFF8600B467A60FB72FB7A194679
:1020C000786800F049F800BF1037BD4680BD0000B9
:1020D00090B597B000AFF860B9607A6007F14C0333
:1020E0001C491846FFF7ABFF07F110037A68B9687F
:1020F0001846FFF7C3FCFB68BB6407F1500207F109
:1021000010031146184600F048F807F1100318466E
:10211000FFF7E7FC03467B657C6D07F1100318466B
:10212000FFF7CDFC07F14C031846FFF79AFF234653
:102130000CE007F110031846FFF7C1FCFFE707F1B9
:102140004C031846FFF78DFF10F0E2FC18465C3791
:10215000BD4690BDF80A002090B585B000AF78600C
:102160000B46FB707B681B681C68F91C4FF0FF3343
:1021700001227868A0470346FB60FB6818461437C5
:10218000BD4690BD80B483B000AF78607B681846D0
:102190000C37BD465DF8047B704790B587B000AF43
:1021A000786039603868FFF7EDFF07F108032146D2
:1021B000184600F01BF807F1080379681846FFF786
:1021C0005DFA07F108031846FFF7D4F97B68184653
:1021D0001C37BD4690BD80B483B000AF78607B688B
:1021E00018460C37BD465DF8047B704790B583B048
:1021F00000AF786039707868FFF7F4F97B681846AB
:10220000FEF702F93B46184600F024F80346002B7F
:102210000FD07C683B461846FFF7DDFF03461946A2
:10222000204600F022F87B68084ADA607B68084A9A
:102230009A607B6805E07B681846FEF7F3F810F0BB
:1022400067FC18460C37BD4690BD00BF8F220108C1
:10225000C922010880B483B000AF7860012318461A
:102260000C37BD465DF8047B704790B585B000AF74
:10227000786039603868FFF7AEFF0346224619469A
:10228000786800F05BF800BF1437BD4690BDB0B56C
:1022900084B000AFF860B9607A60F86800F065F863
:1022A0000546B868FFF789FA03461C787868FFF797
:1022B0004BF903461B681A4621462846FFF7F7FEEE
:1022C00000BF1037BD46B0BDB0B586B000AFF860F6
:1022D000B9601346FB71FB79032B27D801A252F892
:1022E00023F000BFF522010803230108172301088A
:1022F00023230108F868FEF753FD02460E4B1360D6
:1023000014E0F86800F042F80446B86800F02DF8D0
:10231000034623600AE02A46B968F86800F042F8EC
:1023200004E02146F86800F054F800BF0023184686
:102330001837BD46B0BD00BFFCD8020880B584B0D8
:1023400000AFF860B9603A71B868FFF744FFF86809
:10235000FEF742F8034619460120FEF731F803461E
:10236000002B00BF1037BD4680BD80B584B000AFE4
:102370007860786800F039F80346184600F041F8B4
:10238000F860FB6818461037BD4680BD80B582B046
:1023900000AF78607868FEF71FF8034618460837E4
:1023A000BD4680BD80B584B000AFF860B9603A71B9
:1023B000B86800F01AF8F868FEF70EF803461946F8
:1023C0000120FDF7FDFF0346002B00BF1037BD467F
:1023D00080BD80B582B000AF78603970786800F059
:1023E0001BF800BF0837BD4680BD80B582B000AF86
:1023F00078607868FDF7FCFF034618460837BD464D
:1024000080BD80B483B000AF78607B6818460C371D
:10241000BD465DF8047B704780B582B000AF786040
:102420007868FDF7D9FF034618460837BD4680BDDA
:1024300080B582B000AF786039607B68012B0DD128
:102440003B684FF6FF72934208D10021054808F01F
:102450008BFA054A054903480FF0F0FA00BF083728
:10246000BD4680BDF80A002000000020F5A9010843
:1024700080B500AF4FF6FF710120FFF7D9FF80BD97
:1024800080B582B000AF786039607B68002B07D0E0
:1024900078683B68D9B27B689B6B1A4600F0DCFA1F
:1024A00000BF0837BD4680BD80B588B000AFF8607A
:1024B000B9607A603B600023FB612023BB617B68CD
:1024C000002B20DD00237B61BB683B613B691B78EF
:1024D000002B06D07B6901337B613B6901333B6193
:1024E000F4E77A697B689A4202DB00237B6003E0B1
:1024F0007A687B69D31A7B603B6803F00203002B88
:1025000001D03023BB613B6803F00103002B0DD1E8
:102510007B68002B0ADDB969F868FFF7B1FFFB693A
:102520000133FB617B68013B7B60F1E7BB681B7893
:10253000002B0CD0BB681B781946F868FFF7A0FF8A
:10254000FB690133FB61BB680133BB60EEE77B686D
:10255000002B0ADDB969F868FFF792FFFB690133C8
:10256000FB617B68013B7B60F1E7FB691846203724
:10257000BD4680BD80B58CB000AFF860B9607A60B0
:102580003B6000237B6200233B62BB68FB61BB684E
:10259000002B0CD130233B7400237B7407F1100116
:1025A000FB6BBA6BF868FFF77FFF03465BE03B68A5
:1025B000002B0AD07B680A2B07D1BB68002B04DAFA
:1025C00001237B62BB685B42FB6107F110030B33A5
:1025D000FB62FB6A00221A70FB69002B1ED07A682E
:1025E000FB69B3FBF2F102FB01F29B1ABB62BB6A0F
:1025F000092B04DD3B6C3A3BBA6A1344BB62FB6AAD
:10260000013BFB62BB6ADBB23033DAB2FB6A1A70A1
:102610007B68FA69B2FBF3F3FB61DDE77B6A002BB1
:1026200018D0BB6B002B0FD0FB6B03F00203002B09
:102630000AD02D21F868FFF723FF3B6A01333B6284
:10264000BB6B013BBB6305E0FB6A013BFB62FB6AC2
:102650002D221A70FB6BBA6BF96AF868FFF724FF3A
:1026600002463B6A134418463037BD4680BD000021
:10267000B0B590B004AF786187ED020B39617A6034
:102680000023FB623B69092B01DD09233B614FF00D
:1026900000024FF00003D7E9020117F07DFE034668
:1026A000002B0DD02D217869FFF7EAFEFB6A01337C
:1026B000FB62BB68BB60FB6883F00043FB6009E022
:1026C0007B68012B06D120217869FFF7D9FEFB6AD0
:1026D0000133FB62524BBB6206237B623B69002BDA
:1026E00017D03B693B620A23BB623B6A013B3B62FA
:1026F0003B6A002B14BF01230023DBB2002B06D062
:10270000BA6A13469B0013445B00BB62EDE73B696A
:102710007B62D7E9020117F067FE0346FB61F869A7
:1027200017F062FB03460C461A462346D7E902011E
:1027300017F00CFA03460C4625461C46B86A17F0FB
:1027400053FB02460B462046294617F0B3FB0346CF
:102750000C46184621464FF00002324B17F0AAFBF8
:1027600003460C461846214617F03EFE0346BB6161
:10277000B9692D4B83FB01239A10CB17D21A13464C
:102780009B0013445B00CA1A042A14DDBB69264A65
:1027900082FB03129210DB17D31ABB61BB690133B2
:1027A000BB61BA69BB6A9A420DD10023BB61FB6968
:1027B0000133FB6107E0BB691B4A82FB03129210E5
:1027C000DB17D31ABB61612302930023019300231B
:1027D000009300230A22F9697869FFF7CBFE0246CD
:1027E000FB6A1344FB622E217869FFF749FEFB6AFE
:1027F0000133FB6261230293022301937B6A0093FE
:1028000000230A22B9697869FFF7B4FE0246FB6A21
:102810001344FB62FB6A18463037BD46B0BD00BFAB
:1028200040420F00000024406766666680B58EB0A7
:1028300004AFF860B9607A600023FB61BB681B7865
:10284000002B00F00281BB681B78252B40F0EF8045
:10285000BB680133BB6000233B623B6A7B62BB68A1
:102860001B78002B00F0F080BB681B78252B00F054
:10287000DD80BB681B782D2B04D1BB680133BB60A6
:1028800001233B62BB681B78302B07D1BB68013347
:10289000BB603B6A43F002033B62F3E7BB681B7813
:1028A0002F2B13DDBB681B78392B0FDC7A6A13469C
:1028B0009B0013445B007B62BB681B78303B7A6AE9
:1028C00013447B62BB680133BB60E7E7BB681B78DE
:1028D000732B14D17B681A1D7A601B68BB61BB69BE
:1028E000002B01D0B96900E05A493B6A7A6AF8685E
:1028F000FFF7DAFD0246FB691344FB61A0E0BB6809
:102900001B78642B13D17B681A1D7A6019686123C8
:1029100002933B6A01937B6A009301230A22F868C1
:10292000FFF728FE0246FB691344FB6188E0BB68A1
:102930001B78782B03D0BB681B78702B13D17B6876
:102940001A1D7A601968612302933B6A01937B6ABE
:10295000009300231022F868FFF70CFE0246FB6983
:102960001344FB616CE0BB681B78582B13D17B6868
:102970001A1D7A601968412302933B6A01937B6AAE
:10298000009300231022F868FFF7F4FD0246FB696C
:102990001344FB6154E0BB681B78752B13D17B6833
:1029A0001A1D7A601968612302933B6A01937B6A5E
:1029B000009300230A22F868FFF7DCFD0246FB695A
:1029C0001344FB613CE0BB681B78662B16D17B6827
:1029D000073323F0070303F108027A6093ED007BCD
:1029E0003A6A796AB0EE470AF0EE670AF868FFF7CC
:1029F0003FFE0246FB691344FB6121E0BB681B7884
:102A0000632B1DD17B681A1D7A601B68DBB23B7596
:102A100000237B7507F114013B6A7A6AF868FFF7B7
:102A200043FD0246FB691344FB6109E000BFBB683C
:102A30001B781946F868FFF723FDFB690133FB613A
:102A4000BB680133BB60F9E600BFFB691846283755
:102A5000BD4680BD28D90208F0B585B000AFF8604A
:102A60000B467A60FB72FB681846FEF7E9FF0346E7
:102A7000002B01D010F002FAFB68DC68FD6807F15A
:102A80000B031846FEF799FE06463B1D1846FEF757
:102A90005BFD03461A4631462846A0471437BD461B
:102AA000F0BD80B483B000AF786039603B681A68CD
:102AB0007B681A607B681B68183B1B681A467B683A
:102AC00013443A6852681A607B6818460C37BD4652
:102AD0005DF8047B7047000080B500AF03F0FCFB9D
:102AE000002300224FF4E121064800F0CBFC002334
:102AF00000220549054800F0C5FC0248FEF718FC15
:102B000000BF80BD1C0F002020A10700C40D0020C5
:102B100080B582B000AF7860064800F039FBFFF75F
:102B2000DBFF0DF0AFFC00200CF01EF800BF0837F3
:102B3000BD4680BD040F002080B584B004AF4FF4C3
:102B4000407008F017FB01214FF4800009F082FD6E
:102B500001214FF4001009F07DFD0D4B01221A6098
:102B60000023039300230293002301930423009383
:102B700000234FF4C872074907480BF02FFF0346A4
:102B8000012B0CF0BBF800231846BD4680BD00BFEA
:102B9000340F002030D90208112B010880B500AF96
:102BA000054B1B68012B02D10448FEF76BFCFEF7B6
:102BB00093FC00BF80BD00BF340F002038D902084D
:102BC00080B500AF054B1B68012B02D10448FEF70E
:102BD00059FCFEF781FC00BF80BD00BF340F002010
:102BE0004CD9020880B500AF054B1B68012B02D100
:102BF0000448FEF747FCFEF76FFC00BF80BD00BF36
:102C0000340F00205CD9020880B500AF054B1B686B
:102C1000012B02D10448FEF735FCFEF75DFC00BF36
:102C200080BD00BF340F002070D9020880B500AF0E
:102C3000054B1B68012B02D10448FEF723FCFEF76D
:102C40004BFC00BF80BD00BF340F002084D90208B8
:102C500080B582B000AF7860094A7B681A60084A84
:102C60007B681A60064A7B681A607B68054A1146D1
:102C70001846FFF716FF7B6818460837BD4680BD2B
:102C800044DA020870DA020880B582B000AF7860DA
:102C90007B681B681C3B1B681A467B6813441846FC
:102CA000FFF7D6FF034618460837BD4680BD00BF74
:102CB00080B582B000AF7860094A7B681A60084A24
:102CC0007B681A607B686433064A1A607B684C3301
:102CD0001846FFF7BDFF7B6818460837BD4680BD24
:102CE00080DB0208F0DB020880B582B000AF7860BC
:102CF0007B681C331846FDF7A9FB7B680C3318462C
:102D0000FDF7A4FB7B6818460837BD4680BD80B53B
:102D100082B000AF78607B684C331846FFF798FFAD
:102D20007B6818460837BD4680BD000080B582B07C
:102D300000AF7860054A7B681A607B6818460DF022
:102D400085FB7B6818460837BD4680BD44F60208FF
:102D500080B582B000AF78607868FFF7E7FF7868E9
:102D60000EF072FE7B6818460837BD4680BD80B500
:102D700082B000AF78607B6864331846FFF7D6FFF7
:102D80007B6850331846FFF7D1FF7B683C33184609
:102D9000FFF7CCFF7B6828331846FFF7C7FF7B6837
:102DA00014331846FFF7C2FF7B681846FFF7BEFFD3
:102DB0007B6818460837BD4680BD000080B582B0EC
:102DC00000AF786039607B68012B40F093803B68EE
:102DD0004FF6FF72934240F08D800021474801F08A
:102DE00005F80121464801F001F80221454801F0AB
:102DF0009DF8454A454943480EF020FE03214448CA
:102E000001F094F8404A414941480EF017FE042170
:102E1000404800F0CBFF05213F4800F0C7FF0021EC
:102E20003E4806F051FF01213D4806F04DFF0221CA
:102E30003C4806F049FF03213B4806F045FF374A6E
:102E40003A4B1A60364A394B5A60364A374B9A60C9
:102E5000354A364BDA600021354802F01DFD2A4A1A
:102E6000344933480EF0EAFD0121334802F014FDE5
:102E7000254A304930480EF0E1FD02212F4802F08A
:102E8000C5FD04212E4800F0ADFA1F4A2D492C48FB
:102E90000EF0D4FD2C4800F0F0F91B4A2B492A48CB
:102EA0000EF0CCFD2A4800F065FA2A4803F01CF821
:102EB000154A294927480EF0C1FD284801F0FBFBBF
:102EC000114A274925480EF0B9FD0021254800F098
:102ED0003BF90121244800F037F90221234800F092
:102EE00033F90021224800F07DFA074A15492048AD
:102EF0000EF0A4FD00BF0837BD4680BD040B0020C6
:102F00006C0B0020D40B002000000020B12C010825
:102F10003C0C0020A40C0020F00C00203C0D0020F4
:102F2000400D0020440D0020480D00204C0D0020D5
:102F30005C0D0020E92C01088C0D0020BC0D002048
:102F4000C40D0020512C0108DC0D00200F2D0108BC
:102F5000800E0020880E00206F2D0108000F002039
:102F6000FF460108040F00200C0F0020140F002062
:102F70001C0F002080B500AF4FF6FF710120FFF756
:102F80001DFF80BD80B584B000AF7860104B1B681A
:102F9000002B02D10E4B0F4A1A600D4B1B68FB60D1
:102FA0000B4B1A687B681344094A1360084B1B6873
:102FB00003F58073084A934204DD084803F006F9DC
:102FC00003F0C4F8FB6818461037BD4680BD00BF4B
:102FD000380F002000330020000002209CD9020896
:102FE00080B483B000AF78604FF0FF3318460C37E1
:102FF000BD465DF8047B704780B483B000AF786055
:1030000039603B684FF400525A60002318460C3771
:10301000BD465DF8047B704780B483B000AF786034
:10302000012318460C37BD465DF8047B704780B419
:1030300085B000AFF860B9607A6000231846143795
:10304000BD465DF8047B704780B584B000AFF86082
:10305000B9607A60FB68002B05D10121B86803F0E4
:10306000D9F8034600E0002318461037BD4680BD5E
:1030700080B584B000AFF860B9607A60FB68012B5E
:1030800005D17968B86800F019F8034600E000231C
:1030900018461037BD4680BD90B585B000AF064BD1
:1030A0003C460FCB07C423803B460E21184600F058
:1030B00005F803F04BF800BFB4D9020880B586B01C
:1030C00000AF7860396000237B6100233B612FE013
:1030D0003A693B689A420ED13A697B69D31AFB6020
:1030E000FB68002B21DD7B697A681344F968184678
:1030F00003F078F819E03B697A6813441B780A2BCF
:1031000013D13A697B69D31ABB607B697A6813442F
:10311000B968184603F066F802210A4803F062F81D
:10312000BB6801337A6913447B613B6901333B61BE
:103130003A693B689A42CBDD3B6818461837BD4672
:1031400080BD00BFD4D9020880B582B000AF7860DE
:103150000B46FB707868FB78044AD35C194601F093
:1031600005FC7B6818460837BD4680BDD8D90208E3
:1031700080B582B000AF78607B68184601F05EFBD6
:103180007B68184601F00CFC00BF0837BD4680BDC7
:1031900080B582B000AF78607B680121184601F0ED
:1031A0009FFC00BF0837BD4680BD80B582B000AF30
:1031B00078607B680021184601F092FC00BF083758
:1031C000BD4680BD80B582B000AF78600B46FB7015
:1031D0007B68FA781146184601F082FC00BF083778
:1031E000BD4680BD80B483B000AF78607B68184670
:1031F0000C37BD465DF8047B704780B582B000AFE8
:10320000786008F0B5FDF32008F070FE0AF088F948
:1032100008F0C6FD00BF0837BD4680BD80B582B04E
:1032200000AF786039607B68012B0DD13B684FF6A9
:10323000FF72934208D10021054807F095FB054A2B
:10324000054903480EF0FAFB00BF0837BD4680BDB4
:103250003C0F002000000020F5A9010880B500AF58
:103260004FF6FF710120FFF7D9FF80BD80B400AF9A
:1032700000BFBD465DF8047B704780B582B000AFEB
:1032800078607B681821184601F080FE7B68143353
:103290001921184601F07AFE7B6828331A21184656
:1032A00001F0BAFD7B6834331B21184601F0B4FDF0
:1032B0007B6840331C21184601F0AEFD7B684C331F
:1032C0000121184600F08EF87B686433002118460F
:1032D00001F056F97B688C330221184601F07AF828
:1032E0007B6806E07B684C331846FFF7B1FC0FF0B3
:1032F0000FFC18460837BD4680BD000080B582B07F
:1033000000AF78607B686433184601F079F97B6818
:103310008C3342F21071184601F08EF87B6804334A
:10332000184601F098FA7B681833184601F093FAB2
:103330007B682C33184601F081FA7B6838331846D5
:1033400001F07CFA7B684433184601F077FA7B6819
:1033500003F14C00002300224FF4613100F092F899
:10336000034802F020FF00BF0837BD4680BD00BF04
:10337000DCD9020880B582B000AF78607B682E216E
:10338000184601F0F3FA7B6818460837BD4680BD41
:1033900080B483B000AF7860044A7B681A607B68B1
:1033A00018460C37BD465DF8047B7047B4D8020858
:1033B00080B483B000AF786039603B681A687B687E
:1033C0001A607B681B68183B1B681A467B681344AD
:1033D0003A6852681A607B6818460C37BD465DF83B
:1033E000047B704780B582B000AF78600B46FB70FD
:1033F0007B681846FFF7CCFF7B681F4A11461846CA
:10340000FFF7D6FF1D4A7B681A601C4A7B681A606A
:103410001A4A7B681A607B68181DFB78184ADB0023
:1034200013441B79194601F0A1FA7B6803F10C00E3
:10343000FB78134ADB0013445B79194601F096FAD6
:103440001420FDF7FEFE02467B685A617B685B69CB
:1034500000221A747B685B69FA781A707B6807E04F
:103460007B68054A11461846FFF71BFB0FF050FB1F
:1034700018460837BD4680BD70DA020844DA0208F3
:10348000F0D9020890B587B002AFF860B9607A60F1
:103490003B60FB685B697A689A60FB685B693A68C5
:1034A000DA60FB685B69BA685A60FB685B69187828
:1034B000FB685B695968FB685B699B68DAB2FB680B
:1034C0005B69DB68DCB200230093234605F0B2FAA7
:1034D00000BF1437BD4690BD80B586B000AFF86020
:1034E000B9607A603B607B68002B01D100230AE061
:1034F000FB685B6918787A683B68B96805F01CFD61
:1035000003467B617B6918461837BD4680BD80B590
:1035100086B000AFF860B9607A603B60FB685B69B9
:1035200018787A683B68B96805F02CFD03467B6122
:103530007B6918461837BD4680BD90B585B002AF8F
:10354000786039607B685B693A685A607B685B6960
:1035500018787B685B6959687B685B699B68DAB23D
:103560007B685B69DB68DCB200230093234605F0CF
:1035700061FA00BF0C37BD4690BD80B582B000AF88
:1035800078607B685B691B78184606F06DF800BFB1
:103590000837BD4680BD80B582B000AF78607B68DB
:1035A0005B691B78184606F081F803461846083711
:1035B000BD4680BD80B582B000AF78607868FFF707
:1035C00047FB78680EF040FA7B6818460837BD461E
:1035D00080BD80B582B000AF78607B681B681C3B03
:1035E0001B681A467B6813441846FFF7E3FF03463F
:1035F00018460837BD4680BD80B483B000AF786000
:10360000044A7B681A607B6818460C37BD465DF833
:10361000047B704778E0020880B483B000AF786024
:1036200039603B681A687B681A607B681B68283BB6
:103630001B681A467B6813443A6852681A607B68B4
:1036400018460C37BD465DF8047B704780B582B0E4
:1036500000AF786039607B681846FFF7CDFF7B6864
:103660000D4A11461846FFF7D7FF0C4A7B681A60CF
:103670000A4A7B681A60094A7B681A607B683A6864
:103680005A607B680833396818460DF097F87B68F4
:1036900018460837BD4680BD1CE00208E8DF020876
:1036A00080B483B000AF78607B68083318460C376D
:1036B000BD465DF8047B704780B582B000AF78608E
:1036C0007B681B682C3B1B681A467B6813441846B2
:1036D000FFF7E6FF034618460837BD4680BD80B5B4
:1036E00082B000AF78607B685B681B6808331B683A
:1036F0007A68526810469847034618460837BD4610
:1037000080BD80B582B000AF78607B681B68143BD9
:103710001B681A467B6813441846FFF7E0FF034610
:1037200018460837BD4680BD80B582B000AF7860CE
:103730007B685B681B680C331B687A6852681046AC
:103740009847034618460837BD4680BD80B582B00D
:1037500000AF78607B681B68183B1B681A467B6863
:1037600013441846FFF7E0FF034618460837BD46E6
:1037700080BD80B582B000AF78607B685B681B68F5
:1037800010331B687A6852681046984703461846FB
:103790000837BD4680BD80B582B000AF78607B68D9
:1037A0001B681C3B1B681A467B6813441846FFF7CE
:1037B000E0FF034618460837BD4680BD80B582B09D
:1037C00000AF78607B685B681B6814331B687A689D
:1037D000526810469847034618460837BD4680BDD4
:1037E00080B582B000AF78607B681B68203B1B68A7
:1037F0001A467B6813441846FFF7E0FF0346184655
:103800000837BD4680BD80B582B000AF78607B6868
:103810005B681B6804331B687A68526810469847D7
:1038200000BF0837BD4680BD80B582B000AF78606C
:103830007B681B68303B1B681A467B68134418463C
:10384000FFF7E1FF0837BD4680BD80B582B000AF0D
:1038500078607B685B681B681B687A6852681046F2
:10386000984700BF0837BD4680BD80B582B000AF25
:1038700078607B681B680C3B1B681A467B681344A6
:103880001846FFF7E2FF0837BD4680BD80B582B01D
:1038900000AF78607B685B681B6804331B687A68DC
:1038A00052681046984700BF0837BD4680BD80B5B6
:1038B00082B000AF78607B681B68103B1B681A46BB
:1038C0007B6813441846FFF7E1FF0837BD4680BD0B
:1038D00080B483B000AF78607B6818460C37BD4673
:1038E0005DF8047B704780B582B000AF786078687F
:1038F000FFF7EEFF024613461B68343B1B68134478
:1039000018460837BD4680BD80B582B000AF7860EC
:103910007B681B68243B1B681A467B681344184667
:10392000FFF7E1FF034618460837BD4680BD80B566
:1039300082B000AF78607B68083342F2107118469D
:103940000CF066FF00BF0837BD4680BD80B483B071
:1039500000AF78607B68043318460C37BD465DF8CD
:10396000047B704780B582B000AF78607868FFF75D
:10397000EDFF024613461B68583B1B68134418466C
:103980000837BD4680BD80B582B000AF78607B68E7
:103990001B68143B1B681A467B6813441846FFF7E4
:1039A000E1FF034618460837BD4680BD80B483B0AA
:1039B00000AF78607B68183318460C37BD465DF859
:1039C000047B704780B582B000AF78607868FFF7FD
:1039D000EDFF024613461B68383B1B68134418462C
:1039E0000837BD4680BD80B582B000AF78607B6887
:1039F0001B68183B1B681A467B6813441846FFF780
:103A0000E1FF034618460837BD4680BD80B483B049
:103A100000AF78607B68203318460C37BD465DF8F0
:103A2000047B704780B582B000AF78607868FFF79C
:103A3000EDFF024613461B68383B1B6813441846CB
:103A40000837BD4680BD80B582B000AF78607B6826
:103A50001B681C3B1B681A467B6813441846FFF71B
:103A6000E1FF034618460837BD4680BD80B483B0E9
:103A700000AF78607B68283318460C37BD465DF888
:103A8000047B704780B582B000AF78607868FFF73C
:103A9000EDFF024613461B68383B1B68134418466B
:103AA0000837BD4680BD80B582B000AF78607B68C6
:103AB0001B68203B1B681A467B6813441846FFF7B7
:103AC000E1FF034618460837BD4680BD80B483B089
:103AD00000AF78607B68343318460C37BD465DF81C
:103AE000047B704780B582B000AF78607868FFF7DC
:103AF000EDFF024613461B68343B1B68134418460F
:103B00000837BD4680BD80B582B000AF78607B6865
:103B10001B68243B1B681A467B6813441846FFF752
:103B2000E1FF034618460837BD4680BD80B483B028
:103B300000AF78607B684C3318460C37BD465DF8A3
:103B4000047B704780B582B000AF78607B681B68EB
:103B50002C3B1B681A467B6813441846FFF7E6FFA8
:103B6000034618460837BD4680BD80B483B000AF19
:103B700078607B684C3318460C37BD465DF8047B93
:103B8000704780B582B000AF78607868FFF7EDFFCE
:103B9000024613461B682C3B1B6813441846083723
:103BA000BD4680BD80B582B000AF78607B681B6881
:103BB0002C3B1B681A467B6813441846FFF7E1FF4D
:103BC000034618460837BD4680BD000080B584B066
:103BD00000AFF860B9601346FB71BB681A68FB68F8
:103BE0001A60FB681B68283B1B681A46FB68134475
:103BF000BA6852681A60FB68181DFA792949134699
:103C00005B0013445B000B4402331B78194601F040
:103C1000BDF9FB6803F11800FA79224913465B00ED
:103C200013445B000B4403331B78194600F09EFEDF
:103C3000FB6803F12000FA791A4913465B0013442C
:103C40005B000B4404331B78194600F08FFEFB68C1
:103C500003F12800FA79134913465B0013445B0013
:103C60000B4405331B78194600F080FEFB68FA7997
:103C700083F83020FB68002283F83120FB6803F1D1
:103C80003402FB681B68283B1B681946FB680B4421
:103C900019461046FFF7DAFCFB6818461037BD4698
:103CA00080BD00BF10DB020880B582B000AF786035
:103CB0007B6893F8303019460F48FDF767FB7B6847
:103CC0000833184600F0C7FD7B681833184600F02B
:103CD000B5FD7B682033184600F0B0FD7B682833C3
:103CE000184600F0ABFD7B681B681B687868984736
:103CF00000BF0837BD4680BD34DB020880B483B006
:103D000000AF78607B68002283F8312000BF0C3759
:103D1000BD465DF8047B704780B582B000AF786027
:103D20007B681B6834331B68786898477B6893F816
:103D30003130012B0ED07B682033184600F07EFD19
:103D40007B682833184600F079FD7B68012283F8F0
:103D5000312000E000BF0837BD4680BD80B582B08D
:103D600000AF78607B681B6834331B6878689847BD
:103D70007B6893F83130042B13D07B6820331846CE
:103D800000F05CFD7B682833184600F057FD7B6827
:103D900034331846FFF7CBFD7B68042283F83120CB
:103DA00000E000BF0837BD4680BD000080B582B08E
:103DB00000AF78600B46FB707B681846FFF71CFC71
:103DC0007B680849FA781846FFF700FF064A7B68C7
:103DD0001A60054A7B681A607B6818460837BD463A
:103DE00080BD00BF48DF02080CDF020880B582B04A
:103DF00000AF78600B46FB707B681846FFF7FCFB52
:103E00007B686433144A11461846FFF705FC7B684B
:103E10001249FA781846FFF7D9FE114A7B681A60F2
:103E20000F4A7B681A607B6864330E4A1A607B68AD
:103E300003F14C00FA780C4913465B0013445B0015
:103E40000B4401331B78194600F0C4FA7B6818460E
:103E50000837BD4680BD00BFF0DD0208E0DD020886
:103E600048DD0208B8DD020810DB020880B582B028
:103E700000AF78607B681B6834331B6878689847AC
:103E80007B6893F83130022B0BD07B684C3342F2C5
:103E90001071184600F0D0FA7B68022283F83120B6
:103EA00000E000BF0837BD4680BD80B582B000AFDE
:103EB00078607B681B68303B1B681A467B6813443C
:103EC0001846FFF7D3FF0837BD4680BD80B582B0E6
:103ED00000AF78607B6893F83130022B04D17B68A7
:103EE0004C33184600F0B8FA7B68002283F8312082
:103EF00000BF0837BD4680BD80B483B000AF786096
:103F000039603B681A687B681A607B681B68283BCD
:103F10001B681A467B6813443A6852681A607B68CB
:103F200018460C37BD465DF8047B704780B582B0FB
:103F300000AF78600B46FB707B681846FFF75CFBB0
:103F40007B686433134A11461846FFF7D5FF7B6838
:103F50001149FA781846FFF739FE104A7B681A6053
:103F60000E4A7B681A607B6864330D4A1A607B686E
:103F700003F14C00FA780B4913465B0013445B00D5
:103F80000B441B781946FFF72DFA7B681846083753
:103F9000BD4680BD28DC020818DC020880DB020870
:103FA000F0DB020810DB020880B582B000AF786059
:103FB0007B681B6834331B687A68104698477B68B7
:103FC00093F83130032B0DD07B6803F14C000023B4
:103FD00000224FF4E121FFF755FA7B68032283F8B2
:103FE000312000E000BF0837BD4680BD80B582B0FB
:103FF00000AF78607B681B68303B1B681A467B68A3
:1040000013441846FFF7D0FF0837BD4680BD80B582
:1040100082B000AF78607B681B682C331B687868BF
:1040200098470246136820331B681046984703469A
:1040300018460837BD4680BD80B582B000AF7860B5
:104040007868FFF7E4FF024613461B68583B1B687D
:10405000134418460837BD4680BD80B582B000AF16
:1040600078607B681B68183B1B681A467B681344A2
:104070001846FFF7E1FF034618460837BD4680BDE6
:1040800080B582B000AF78607B681B682C331B68FA
:10409000786898470246136828331B68104698478B
:1040A000034618460837BD4680BD80B582B000AFD4
:1040B00078607868FFF7E4FF024613461B68383BD8
:1040C0001B68134418460837BD4680BD80B582B0D2
:1040D00000AF78607B681B681C3B1B681A467B68D6
:1040E00013441846FFF7E1FF034618460837BD465C
:1040F00080BD80B582B000AF78607B681B682C33D0
:104100001B6878689847024613682C331B68104672
:104110009847034618460837BD4680BD80B582B033
:1041200000AF78607868FFF7E4FF024613461B682B
:10413000383B1B68134418460837BD4680BD80B520
:1041400082B000AF78607B681B68203B1B681A4612
:104150007B6813441846FFF7E1FF0346184608370B
:10416000BD4680BD80B582B000AF78607B681B68BB
:104170002C331B68786898470246136830331B68F5
:1041800010469847034618460837BD4680BD80B59F
:1041900082B000AF78607868FFF7E4FF024613460C
:1041A0001B68343B1B68134418460837BD4680BD66
:1041B00080B582B000AF78607B681B68243B1B68C9
:1041C0001A467B6813441846FFF7E1FF034618467A
:1041D0000837BD4680BD80B483B000AF78607B688F
:1041E0001B6918460C37BD465DF8047B704780B4E8
:1041F00083B000AF78607B681B6918460C37BD46FA
:104200005DF8047B7047000080B483B000AF786035
:10421000044A7B681A607B6818460C37BD465DF817
:10422000047B704714E3020880B483B000AF786069
:1042300039603B681A687B681A607B681B68283B9A
:104240001B681A467B6813443A6852681A607B6898
:1042500018460C37BD465DF8047B704780B582B0C8
:1042600000AF78600B46FB707B681B682C331B68C3
:104270007868984703461833184600F091FB7B682E
:104280001B682C331B687868984703461833FA7804
:104290001146184600F024FC00BF0837BD4680BD1B
:1042A00080B582B000AF78607B681B682C331B68D8
:1042B00078689847024613681B681046984700BF05
:1042C0000837BD4680BD80B582B000AF78607B689E
:1042D0001B682C331B6878689847024613680433C0
:1042E0001B681046984700BF0837BD4680BD0000D8
:1042F00080B582B000AF786039607B681846FFF700
:1043000083FF7B68104A11461846FFF78DFF0F4A5E
:104310007B681A600D4A7B681A603B681A1D7B68CF
:104320005A603B6803F120027B689A603B6803F1A6
:1043300028027B68DA607B683A681A617B681846F5
:104340000837BD4680BD00BFA4E202086CE2020847
:1043500080B582B000AF0346FB71FB79042B1DD8FA
:1043600001A252F823F000BF9D4301087D430108DC
:10437000854301088D430108954301080948FDF76D
:1043800005F80BE00848FDF701F807E00748FCF7DF
:10439000FDFF03E00648FCF7F9FF00BF0837BD4604
:1043A00080BD00BFE4E30208F0E30208FCE302087A
:1043B00008E4020880B483B000AF7860044A7B68E8
:1043C0001A607B6818460C37BD465DF8047B704761
:1043D00038E4020880B582B000AF78600B46FB700D
:1043E0007B681846FFF7E6FF114A7B681A607B6816
:1043F000181DFB780F4ADB0013441B79194600F0A7
:10440000B5FA7B6803F10C00FB780A4ADB00134421
:104410005B79194600F0AAFAFB78064A52F8332075
:104420007B685A617B6818460837BD4680BD00BF6F
:1044300020E40208CCE3020880B582B000AF7860C7
:1044400039607B685B69DBB23968184602F046FF69
:1044500000BF0837BD4680BD80B582B000AF786030
:104460007B685B69DBB2184602F0B0FF00BF08371B
:10447000BD4680BD80B582B000AF786039607B6892
:104480005B69DBB23968184602F0F0FF00BF0837FD
:10449000BD4680BD80B586B000AFF8607A603B60F5
:1044A0000B46FB72FB685B69D8B2F97A3B687A68A5
:1044B00003F00AF80346FB75FB7D1846FFF748FF3B
:1044C000FB7D002BD4BF01230023DBB21846183735
:1044D000BD4680BD80B586B000AFF8607A603B60B5
:1044E0000B46FB72FB685B69D8B2F97A3B687A6865
:1044F00003F01CF80346FB75FB7D1846FFF728FF09
:10450000FB7D002BD4BF01230023DBB218461837F4
:10451000BD4680BD80B58AB004AFF8607A603B606C
:104520000B46FB72FB685B69D8B2F97ABB6A0293EF
:104530007B6A01933B6A00933B687A6803F02AF830
:104540000346FB75FB7D1846FFF702FFFB7D002B42
:10455000D4BF01230023DBB218461837BD4680BD07
:1045600080B483B000AF7860044A7B681A607B68CF
:1045700018460C37BD465DF8047B7047B8E4020866
:1045800080B582B000AF78600B46FB707B68184640
:10459000FFF7E6FF184A7B681A60174A7B681A60C3
:1045A0007B68181DFB78154A9B0013445B781946FD
:1045B00000F0DCF97B6803F10C00FB780F4A9B00EC
:1045C00013449B78194600F027FC7B6803F1180020
:1045D000FB780A4A9B001344DB78194600F01CFC68
:1045E000FB78064A12F823301A467B685A627B68C9
:1045F00018460837BD4680BDA4E4020884E40208DA
:1046000080B582B000AF78607B685B6ADBB238222D
:104610000021184603F0D0FE786800F03EF800BF95
:104620000837BD4680BD80B584B000AFF860B96082
:104630007A60FB685B6AD8B27B680022B96804F0D4
:1046400051F8012318461037BD4680BD80B584B0AF
:1046500000AFF860B9607A60FB685B6AD8B27B68CB
:10466000BA68FF2104F03EF8012318461037BD4612
:1046700080BD80B584B000AFF860B9607A603B60FF
:10468000FB685B6AD8B23B687A68B96804F02AF8BC
:10469000012318461037BD4680BD80B582B000AFFB
:1046A00078607B685B6ADBB2184603F0C1FF00BF2D
:1046B0000837BD4680BD80B582B000AF78604FF44A
:1046C0000E70FCF7BEFD02467B681A607B681B68B3
:1046D00000221A70342002F0FDF9342002F05CFB55
:1046E000342002F08FFB342002F022FC0121342020
:1046F00002F0E0FC7B6818460837BD4680BD80B5F7
:1047000082B000AF78607B681B681846FCF7A5FD97
:104710007B6818460837BD4680BD80B400AF00BF37
:10472000BD465DF8047B704790B589B000AFF86076
:10473000B9607A60FB681B6848331C6807F1100396
:104740000C491846FCF7B6F907F110037A68B96806
:10475000F868A04707F110031846FBF777FE06E05C
:1047600007F110031846FBF771FE0EF0D1F924375C
:10477000BD4690BD1B47010890B585B000AFF860FD
:10478000B9607A603B60FB681B6848331C683B6813
:104790007A68B968F868A04700BF1437BD4690BD75
:1047A00090B58BB000AFF860B9607A603B60FB6891
:1047B0001B6848331C6807F12003394607F13802AB
:1047C000184600F0A6FC07F1200207F1100311467D
:1047D000184600F063FD07F110037A68B968F868BD
:1047E000A04707F110031846FBF730FE06E007F17B
:1047F00010031846FBF72AFE0EF08AF92C37BD4647
:1048000090BD90B585B000AFF860B9607A60FB6884
:104810001B6848331C687B680022B968F868A047A9
:1048200000BF1437BD4690BD80B483B000AF786040
:1048300000BF0C37BD465DF8047B704780B582B081
:1048400000AF78607B681B79184602F043F900BF1F
:104850000837BD4680BD90B589B000AF78607B68F1
:104860001B685C3B1B681A467B6813441C7907F184
:104870000C03184600F050FD07F10C031A46012105
:10488000204601F06DFF07F10C031846FBF7DEFD33
:104890007B681B685C3B1B681A467B6813441B796A
:1048A0000121184602F09EF97B681B685C3B1B687F
:1048B0001A467B6813441B79184602F035FA7B6868
:1048C0001B685C3B1B681A467B6813441B791846BF
:1048D00002F000F906E007F10C031846FBF7B6FDFD
:1048E0000EF016F92437BD4690BD80B582B000AFFA
:1048F00078607B681B683C3B1B681A467B681344E6
:104900001846FFF7A8FF0837BD4680BD80B483B0C6
:1049100000AF7860044A7B681A607B6818460C37E1
:10492000BD465DF8047B704780F3020880B485B013
:1049300000AFF860B9601346FB71BB681A68FB688A
:104940001A60FB681B68383B1B681A46FB681344F7
:10495000BA6852681A60FB68FA791A71FB681846DF
:104960001437BD465DF8047B7047000080B582B007
:1049700000AF78600B46FB707B681846FFF7C6FFF8
:10498000064A7B681A60054A7B681A607B68FA7879
:104990001A717B6818460837BD4680BD48F3020887
:1049A00080B582B000AF78607B681B79184602F052
:1049B000F3F97B681B79184602F024FA7B681B79AF
:1049C000184602F0B5FA00BF0837BD4680BD80B575
:1049D00082B000AF78607B681B79184602F078FAE5
:1049E0007B681B79184602F0A3FA00BF0837BD4662
:1049F00080BD80B582B000AF78607B681B791846B7
:104A000002F066FA7B681B79184602F0C1FA00BF13
:104A10000837BD4680BD80B582B000AF78607B6846
:104A20001B79184602F054FA7B681B79184602F08D
:104A3000E5FA00BF0837BD4680BD80B582B000AF43
:104A400078607B681B79184602F0A6F97B681B79B1
:104A5000184602F007FA7B681B79184602F068FADC
:104A600000BF0837BD4680BD80B582B000AF78601A
:104A70007B681B79184602F08FF97B681B79184612
:104A800002F0F0F97B681B79184602F081FA00BF4A
:104A90000837BD4680BD80B582B000AF78607B68C6
:104AA0001B79184602F078F97B681B79184602F0EA
:104AB000D9F97B681B79184602F0A0FA00BF0837C5
:104AC000BD4680BD80B582B000AF78607B681B7941
:104AD000184602F0C9FA034618460837BD4680BD9D
:104AE00080B582B000AF78600B46FB707B681B79A5
:104AF000FA781146184602F0DDFA00BF0837BD46C5
:104B000080BD80B582B000AF78607B681B791846A5
:104B100002F008FB00BF0837BD4680BD80B582B0FB
:104B200000AF78607B681B682C331B6878689847F7
:104B300000BF0837BD4680BD80B483B000AF786049
:104B400039603B681A687B681A607B681B68383B71
:104B50001B681A467B6813443A6852681A607B687F
:104B600018460C37BD465DF8047B704780B485B0AD
:104B700000AFF860B9601346FB71BB681A68FB6848
:104B80001A60FB681B685C3B1B681A46FB68134491
:104B9000BA6852681A60FB681B68383B1B681A4683
:104BA000FB681344BA6892681A60FB681B68603B34
:104BB0001B681A46FB681344BA68D2681A60FB681F
:104BC00018461437BD465DF8047B704780B582B047
:104BD00000AF78600B46FB707B6804331846FFF724
:104BE00095FE7B6804330F49FA781846FFF79EFE5E
:104BF0007B680D4A11461846FFF79EFF0B4A7B68FB
:104C00001A607B6804330A4A1A607B680433084AD6
:104C10001A60064A7B681A607B6818460837BD46EA
:104C200080BD00BFB4F10208BCF10208E8F0020840
:104C300074F1020880B582B000AF78607B681B68B1
:104C40005C3B1B681A467B6813441B79184602F0CC
:104C50006BF800BF0837BD4680BD80B584B000AF9B
:104C6000F860B9607A603B60FB681B685C3B1B685E
:104C70001A46FB6813441B79184602F055F8FB6886
:104C80001B685C3B1B681A46FB68134418797B68F9
:104C9000002B01D1012300E002233A68194601F0FC
:104CA0005FFDFB681B6840331B68B968F86898476C
:104CB000FB681B685C3B1B681A46FB6813441B7946
:104CC000184602F049F8FB681B6844331B68002152
:104CD000F868984700BF1037BD4680BD80B582B0E8
:104CE00000AF786039603B68012B04D0022B1CD0E8
:104CF000002B0DD026E07B681B685C3B1B681A46C6
:104D00007B6813441B790021184601F06BFF19E002
:104D10007B681B685C3B1B681A467B6813441B79E5
:104D20000121184601F05EFF0CE07B681B685C3BCC
:104D30001B681A467B6813441B790221184601F050
:104D400051FF00BF00BF0837BD4680BD80B582B0AF
:104D500000AF786039607B681B685C3B1B681A4653
:104D60007B6813441B793968184601F0AFFC034691
:104D7000002B14BF01230023DBB218460837BD46C1
:104D800080BD80B483B000AF786039603B681A683A
:104D90007B681A607B681B68383B1B681A467B6817
:104DA00013443A6852681A607B6818460C37BD464F
:104DB0005DF8047B704780B485B000AFF860B960DF
:104DC0001346FB71BB681A68FB681A60FB681B68B6
:104DD0004C3B1B681A46FB681344BA6852681A6059
:104DE000FB681B68383B1B681A46FB681344BA68AB
:104DF00092681A60FB681B68503B1B681A46FB6888
:104E00001344BA68D2681A60FB6818461437BD4666
:104E10005DF8047B7047000080B582B000AF786019
:104E20000B46FB707B6804331846FFF76FFD7B6809
:104E300004330F49FA781846FFF778FD7B680D4A6E
:104E400011461846FFF79DFF0B4A7B681A607B6886
:104E500004330A4A1A607B680433084A1A60064A17
:104E60007B681A607B6818460837BD4680BD00BF66
:104E70003CEF020844EF020884EE0208FCEE020850
:104E800080B582B000AF78607B681B684C3B1B68C4
:104E90001A467B6813441B79184601F0B7FA00BF25
:104EA0000837BD4680BD80B582B000AF78607B68B2
:104EB0001B684C3B1B681A467B6813441B791846D9
:104EC00001F008FE00BF0837BD4680BD80B582B046
:104ED00000AF78607B681B6838331B687868984738
:104EE00003465B0007EE903AF8EEE77A9FED057A0D
:104EF000C7EE876AF0EE667AB0EE670A0837BD46FD
:104F000080BD00BF00801D4580B582B000AF7860D5
:104F10007B681B684C3B1B681A467B6813441B79F3
:104F2000184601F07FFA034618460837BD4680BD93
:104F300080B483B000AF786039603B681A687B68E2
:104F40001A607B681B685C3B1B681A467B681344CD
:104F50003A6852681A607B681B68383B1B681A46BF
:104F60007B6813443A6892681A607B681B68603BF0
:104F70001B681A467B6813443A68D2681A607B68DB
:104F800018460C37BD465DF8047B704780B582B08B
:104F900000AF78600B46FB707B6808331846FFF75C
:104FA000B5FC7B6808332249FA781846FFF7BEFC47
:104FB0007B68204A11461846FFF7E3FE7B680433FE
:104FC0001D4A11461846FFF7B7FD7B6810331B4A90
:104FD00011461846FFF7ACFF7B681949FA78184666
:104FE000FFF7E9FE7B6804331649FA781846FFF7A5
:104FF000BDFD154A7B681A607B680833134A1A6046
:105000007B680833114A1A600F4A7B681A60104A9D
:105010007B685A607B6804330D4A1A607B681033E2
:105020000C4A1A607B6818460837BD4680BD00BF31
:10503000A4E70208ACE70208B4E70208BCE70208EC
:105040006CE702087CE7020864E502088CE60208C7
:1050500000E602081CE7020880B582B000AF786065
:105060007B681B684C3B1B681A467B6813441B79A2
:10507000184601F059FE7B681B684C3B1B681A46BA
:105080007B6813441B79184601F0C0F900BF08374C
:10509000BD4680BD80B582B000AF78607B681B687C
:1050A0004C3B1B681A467B6813441B79184601F079
:1050B0003BFE7B681B684C3B1B681A467B681344AD
:1050C0001B79184601F006FD00BF0837BD4680BDBC
:1050D00080B483B000AF78607B6818460C37BD465B
:1050E0005DF8047B704780B483B000AF78607B6864
:1050F00018460C37BD465DF8047B704780B483B01A
:1051000000AF78607B6818460C37BD465DF8047BBD
:10511000704790B585B000AFF860B9607A60B86844
:10512000FFF7D6FF03461846FFF7DDFF0446786811
:10513000FFF7E4FF03461A462146F86800F057F9E6
:10514000F8681437BD4690BD80B483B000AF786076
:105150007B6818460C37BD465DF8047B704780B409
:1051600083B000AF78607B6818460C37BD465DF8A9
:10517000047B704780B483B000AF78607B681846CA
:105180000C37BD465DF8047B704780B582B000AF38
:1051900078607868FFF7EEFF7B6818460837BD46F1
:1051A00080BD80B483B000AF78607B6818460C3750
:1051B000BD465DF8047B704780B582B000AF786073
:1051C0007B681846FFF7EDFF034618460837BD46D3
:1051D00080BD80B582B000AF786039603868FCF778
:1051E000B3F903461A687B681A607B68184608376B
:1051F000BD4680BD90B583B000AF786039607C68F3
:105200003868FFF7D9FF03461846FCF79DF90346B7
:1052100019462046FFF7DDFF7B6818460C37BD4670
:1052200090BD80B582B000AF786039607B683A6825
:1052300011461846FFF7DEFF7B6818460837BD4663
:1052400080BD90B583B000AF786039607868FFF7B3
:105250009CFF3B681846FFF777FF03461A687B6898
:105260001A607B681C1D3B6804331846FFF777FF04
:10527000034619462046FFF7D4FF7B6818460C37D3
:10528000BD4690BD80B483B000AF78607B6818469F
:105290000C37BD465DF8047B7047000090B583B0C5
:1052A00000AF786039607868FBF7ECFB7B681846E4
:1052B000FBF7AAF8386800F0B6F80346002B0ED0CA
:1052C0007C683868FFF7DEFF03461946204600F089
:1052D000B5F87B68084ADA607B68084A9A607B68A0
:1052E00005E07B681846FBF79DF80DF011FC1846A9
:1052F0000C37BD4690BD00BF6154010881540108C0
:1053000080B483B000AF78607B6818460C37BD4628
:105310005DF8047B7047000090B583B000AF786003
:1053200039707868FBF7AEFB7B681846FBF76CF8C2
:105330003B46184600F0DEF80346002B0FD07C6891
:105340003B461846FFF7DCFF03461946204600F0AF
:10535000DCF87B68084ADA607B68084A9A607B68F8
:1053600005E07B681846FBF75DF80DF0D1FB1846A9
:105370000C37BD4690BD00BF2F5501084D550108A3
:1053800080B582B000AF786039603868FFF7B6FE4C
:1053900003461A687B681A607B6818460837BD4662
:1053A00080BD90B583B000AF786039607C683868A4
:1053B000FFF7A4FE034619462046FFF7E1FF7B688E
:1053C00018460C37BD4690BD90B583B000AF7860ED
:1053D00039607C683868FFF791FE0346194620461D
:1053E000FFF7DFFF7B6818460C37BD4690BD90B5D0
:1053F00085B000AFF860B9607A60F868FFF7C5FE65
:10540000BB681A68FB681A60FB681C1D7868FFF7A8
:1054100075FE034619462046FFF7D6FFFB6818467F
:105420001437BD4690BD80B483B000AF78600123CF
:1054300018460C37BD465DF8047B704790B585B0C3
:1054400000AF786039603868FFF71CFF03462246DA
:105450001946786800F0B4F800BF1437BD4690BD17
:1054600080B582B000AF7860786800F0C5F8034678
:10547000184600F0D7F800BF0837BD4680BD0000D1
:10548000B0B586B000AFF860B9601346FB71FB7928
:10549000032B27D801A252F823F000BFAD54010816
:1054A000BB540108CF540108DB540108F868FBF72E
:1054B00077FC02460E4B136014E0F86800F0C2F867
:1054C0000446B86800F098F8034623600AE02A46CC
:1054D000B968F86800F0C2F804E02146F86800F006
:1054E000DCF800BF002318461837BD46B0BD00BF2A
:1054F000BCF3020880B483B000AF78600123184683
:105500000C37BD465DF8047B704790B585B000AFA1
:10551000786039603868FFF7F3FE03462246194683
:10552000786800F0CBF800BF1437BD4690BD80B559
:1055300082B000AF7860786800F0D7F8034618466C
:10554000FFF772F900BF0837BD4680BDB0B586B021
:1055500000AFF860B9601346FB71FB79032B27D8C5
:1055600001A252F823F000BF7955010887550108C0
:105570009B550108A7550108F868FBF711FC024686
:105580000E4B136014E0F86800F0C0F80446B868E9
:1055900000F0ABF8034623600AE02A46B968F868D1
:1055A00000F0C0F804E02146F86800F0D2F800BF2F
:1055B000002318461837BD46B0BD00BFB4F302083B
:1055C000B0B584B000AFF860B9603A71B868FFF761
:1055D00059FE054608200DF001F903461C462946F0
:1055E0002046FFF72EFEF86800F02CF803461C60FA
:1055F00000BF1037BD46B0BD80B584B000AF786045
:10560000786800F0B2F803461B68FB60FB68184638
:105610001037BD4680BD80B400AF1846BD465DF86A
:10562000047B704790B585B000AF7860FFF7F3FF5B
:1056300007F1080322461946786800F0BBF81437D2
:10564000BD4690BD80B582B000AF78607868FAF74B
:10565000C3FE034618460837BD4680BDB0B584B0CA
:1056600000AFF860B9603A71B86800F07EF80346A0
:105670001D6808200DF0B2F803461C4623462A4652
:1056800092E8030083E80300F868FFF7DBFF0346B6
:105690001C6000BF1037BD46B0BD80B582B000AF02
:1056A000786039707868FFF7CDFF03461B681846AD
:1056B0000CF0CAF900BF0837BD4680BD80B584B084
:1056C00000AFF860B9603A71B868FFF719FEF86882
:1056D000FAF782FE034619460120FAF771FE0346E7
:1056E000002B00BF1037BD4680BD80B584B000AF31
:1056F0007860786800F079F80346184600F081F881
:10570000F860FB6818461037BD4680BD80B582B092
:1057100000AF78607868FAF75FFE034618460837EE
:10572000BD4680BD80B584B000AFF860B9603A7105
:10573000B86800F05AF8F868FAF74EFE03461946C2
:105740000120FAF73DFE0346002B00BF1037BD468F
:1057500080BD80B582B000AF78603970786800F0A5
:105760005BF800BF0837BD4680BD80B582B000AF92
:1057700078607868FAF73CFE034618460837BD465D
:1057800080BD80B582B000AF78607868FFF714FD07
:10579000034618460837BD4680BD80B582B000AFCD
:1057A00078607B681846FFF7ECFF03461846083719
:1057B000BD4680BD90B587B000AFF860B9603A7162
:1057C000FB681C68FB6804331846FFF7E6FF0146D8
:1057D00007F11403BA68184600F02AF803461B685C
:1057E0001846A0471C37BD4690BD80B582B000AFBB
:1057F00078607868FAF7FCFD034618460837BD461E
:1058000080BD80B483B000AF78607B6818460C37E9
:10581000BD465DF8047B704780B582B000AF78600C
:105820007868FAF7D9FD034618460837BD4680BDAB
:1058300080B584B000AFF860B9607A60B868FFF7EF
:105840005DFC034618461037BD4680BD80B584B068
:1058500000AF78607B68FB60F8680AF023FC0346C1
:10586000BB60BB6804331846FFF72CF9034683F08E
:105870000103DBB2002B05D0BB680C33184600F0E7
:10588000EBF804E0BB681C33184600F0E5F800BFF5
:105890001037BD4680BD000080B582B000AF786093
:1058A0000B46FB707868FB780B4A52F82330DBB26A
:1058B0001946FFF78BF97B680C330021184600F07E
:1058C000E0F87B681C330021184600F0DAF87B68AA
:1058D00018460837BD4680BD4004002090B587B00B
:1058E00002AF78600023FB607B681B68DC6A09F00C
:1058F000F7FA014607F10C020023009313460A460B
:10590000062120460AF02AF9FB68002B03D0044B3D
:105910004FF080521A6000BF1437BD4690BD00BFE3
:1059200004ED00E090B589B002AF78607B6818465E
:10593000FEF791FF7B6804331846FFF748F80A200A
:1059400005F012F90146254B00937B68002224489C
:105950000AF0C6F802467B68DA627B681C33184698
:1059600000F0A0F8034683F00103DBB2002B05D062
:105970007B681C331B49184600F0AFF87B680C337A
:10598000184600F08FF8034683F00103DBB2002BCA
:1059900005D07B680C331349184600F09EF87C68EC
:1059A0007A6807F108031146184600F0C1F807F1BC
:1059B00008031A4602212046FEF723FF07F10803D9
:1059C0001846FAF743FD06E007F108031846FAF710
:1059D0003DFD0DF09DF81C37BD4690BD4D580108AA
:1059E000E8F502081B47010880B582B000AF786077
:1059F0007B6804331846FFF765F8034683F001031C
:105A0000DBB218460837BD4680BD000080B582B0C5
:105A100000AF78600B46FB707868FB78054A52F857
:105A20002330DBB21946FEF7A1FF7B681846083722
:105A3000BD4680BD4004002080B582B000AF7860D4
:105A40007B681846FEF7FAFE7B681846FEF7BFFF34
:105A500000BF0837BD4680BD80B582B000AF78601A
:105A60007B681846FBF7ECFF0346002B01D00DF0D6
:105A700005FA7B68DB687A68104698470837BD46A8
:105A800080BD80B582B000AF786039607868FAF781
:105A9000F9FF7B681846FAF7B7FC7B6818460837A9
:105AA000BD4680BD80B582B000AF78607B68184687
:105AB000FBF7C6FF034683F00103DBB21846083745
:105AC000BD4680BD80B483B000AF78607B68184667
:105AD0000C37BD465DF8047B704780B586B000AFDB
